{
  "contractName": "HelloWorld",
  "abi": [
    {
      "inputs": [
        {
          "internalType": "string",
          "name": "initMessage",
          "type": "string"
        }
      ],
      "payable": false,
      "stateMutability": "nonpayable",
      "type": "constructor"
    },
    {
      "anonymous": false,
      "inputs": [
        {
          "indexed": false,
          "internalType": "string",
          "name": "message",
          "type": "string"
        }
      ],
      "name": "EmitMessage",
      "type": "event"
    },
    {
      "constant": true,
      "inputs": [],
      "name": "message",
      "outputs": [
        {
          "internalType": "string",
          "name": "",
          "type": "string"
        }
      ],
      "payable": false,
      "stateMutability": "view",
      "type": "function"
    },
    {
      "constant": false,
      "inputs": [
        {
          "internalType": "string",
          "name": "newMessage",
          "type": "string"
        }
      ],
      "name": "updateMessage",
      "outputs": [],
      "payable": false,
      "stateMutability": "nonpayable",
      "type": "function"
    },
    {
      "constant": false,
      "inputs": [
        {
          "internalType": "string",
          "name": "recipient",
          "type": "string"
        }
      ],
      "name": "sayMessage",
      "outputs": [],
      "payable": false,
      "stateMutability": "nonpayable",
      "type": "function"
    },
    {
      "constant": false,
      "inputs": [],
      "name": "sayMessage",
      "outputs": [],
      "payable": false,
      "stateMutability": "nonpayable",
      "type": "function"
    }
  ],
  "bytecode": "0x608060405234801561001057600080fd5b5060405161093e38038061093e8339818101604052602081101561003357600080fd5b810190808051604051939291908464010000000082111561005357600080fd5b8382019150602082018581111561006957600080fd5b825186600182028301116401000000008211171561008657600080fd5b8083526020830192505050908051906020019080838360005b838110156100ba57808201518184015260208101905061009f565b50505050905090810190601f1680156100e75780820380516001836020036101000a031916815260200191505b50604052505050806000908051906020019061010492919061010b565b50506101b0565b828054600181600116156101000203166002900490600052602060002090601f016020900481019282601f1061014c57805160ff191683800117855561017a565b8280016001018555821561017a579182015b8281111561017957825182559160200191906001019061015e565b5b509050610187919061018b565b5090565b6101ad91905b808211156101a9576000816000905550600101610191565b5090565b90565b61077f806101bf6000396000f3fe608060405234801561001057600080fd5b506004361061004c5760003560e01c80631923be2414610051578063312d72961461010c578063e21f37ce146101c7578063fc4a02871461024a575b600080fd5b61010a6004803603602081101561006757600080fd5b810190808035906020019064010000000081111561008457600080fd5b82018360208201111561009657600080fd5b803590602001918460018302840111640100000000831117156100b857600080fd5b91908080601f016020809104026020016040519081016040528093929190818152602001838380828437600081840152601f19601f820116905080830192505050505050509192919290505050610254565b005b6101c56004803603602081101561012257600080fd5b810190808035906020019064010000000081111561013f57600080fd5b82018360208201111561015157600080fd5b8035906020019184600183028401116401000000008311171561017357600080fd5b91908080601f016020809104026020016040519081016040528093929190818152602001838380828437600081840152601f19601f82011690508083019250505050505050919291929050505061026e565b005b6101cf61054b565b6040518080602001828103825283818151815260200191508051906020019080838360005b8381101561020f5780820151818401526020810190506101f4565b50505050905090810190601f16801561023c5780820380516001836020036101000a031916815260200191505b509250505060405180910390f35b6102526105e9565b005b806000908051906020019061026a9291906106a5565b5050565b606060008054600181600116156101000203166002900480601f0160208091040260200160405190810160405280929190818152602001828054600181600116156101000203166002900480156103065780601f106102db57610100808354040283529160200191610306565b820191906000526020600020905b8154815290600101906020018083116102e957829003601f168201915b505050505090506060829050606060018251845101016040519080825280601f01601f19166020018201604052801561034e5781602001600182028038833980820191505090505b5090506060819050600080905060008090505b85518110156103cf5785818151811061037657fe5b602001015160f81c60f81b83838060010194508151811061039357fe5b60200101907effffffffffffffffffffffffffffffffffffffffffffffffffffffffffffff1916908160001a9053508080600101915050610361565b507f200000000000000000000000000000000000000000000000000000000000000082828060010193508151811061040357fe5b60200101907effffffffffffffffffffffffffffffffffffffffffffffffffffffffffffff1916908160001a90535060008090505b84518110156104a65784818151811061044d57fe5b602001015160f81c60f81b83838060010194508151811061046a57fe5b60200101907effffffffffffffffffffffffffffffffffffffffffffffffffffffffffffff1916908160001a9053508080600101915050610438565b507f6076819939bfe4b7e4347dc8af3bfd4d018a0a9d488d7d8348a9e1ab09d7057b826040518080602001828103825283818151815260200191508051906020019080838360005b838110156105095780820151818401526020810190506104ee565b50505050905090810190601f1680156105365780820380516001836020036101000a031916815260200191505b509250505060405180910390a1505050505050565b60008054600181600116156101000203166002900480601f0160208091040260200160405190810160405280929190818152602001828054600181600116156101000203166002900480156105e15780601f106105b6576101008083540402835291602001916105e1565b820191906000526020600020905b8154815290600101906020018083116105c457829003601f168201915b505050505081565b7f6076819939bfe4b7e4347dc8af3bfd4d018a0a9d488d7d8348a9e1ab09d7057b600060405180806020018281038252838181546001816001161561010002031660029004815260200191508054600181600116156101000203166002900480156106955780601f1061066a57610100808354040283529160200191610695565b820191906000526020600020905b81548152906001019060200180831161067857829003601f168201915b50509250505060405180910390a1565b828054600181600116156101000203166002900490600052602060002090601f016020900481019282601f106106e657805160ff1916838001178555610714565b82800160010185558215610714579182015b828111156107135782518255916020019190600101906106f8565b5b5090506107219190610725565b5090565b61074791905b8082111561074357600081600090555060010161072b565b5090565b9056fea265627a7a723158206675c36aa654ecb2db4f7dafbc7ecdec20cb8125e3666bf70b9f00ecf63cb70064736f6c63430005100032",
  "source": "pragma solidity >=0.5.2;\n\n// Defines a contract named `HelloWorld`.\n// A contract is a collection of functions and data (its state).\n// Once deployed, a contract resides at a specific address on the Ethereum blockchain.\n// Learn more: https://solidity.readthedocs.io/en/v0.5.10/structure-of-a-contract.html\ncontract HelloWorld {\n\n    event EmitMessage(string message);\n\n    string public message;\n\n    constructor(string memory initMessage) public {\n        message = initMessage;\n    }\n\n    function updateMessage(string memory newMessage) public {\n        message = newMessage;\n    }\n\n    function sayMessage() public {\n        emit EmitMessage(message);\n    }\n\n    function sayMessage(string memory recipient) public {\n        bytes memory _bmessage = bytes(message);\n        bytes memory _brecipient = bytes(recipient);\n\n        string memory finalMessage = new string(_bmessage.length + _brecipient.length + 1);\n        bytes memory _bFinalMessage = bytes(finalMessage);\n\n        uint k = 0;\n        for (uint i = 0; i < _bmessage.length; i++) _bFinalMessage[k++] = _bmessage[i];\n        _bFinalMessage[k++] = ' ';\n        for (uint i = 0; i < _brecipient.length; i++) _bFinalMessage[k++] = _brecipient[i];\n\n        emit EmitMessage(string(_bFinalMessage));\n   }\n}",
  "sourcePath": "/Users/ajibigad/crytoproject/helloworld/contracts/HelloWorld.sol",
  "compiler": {
    "name": "solc",
    "version": "0.5.16+commit.9c3226ce.Emscripten.clang"
  },
  "schemaVersion": "3.3.4",
  "updatedAt": "2022-03-08T13:00:32.349Z",
  "networkType": "ethereum",
  "devdoc": {
    "methods": {}
  },
  "userdoc": {
    "methods": {}
  }
}